:020000040000FA
:100000000C945C000C9479000C9479000C947900A9
:100010000C9479000C9479000C9479000C9479007C
:100020000C9479000C9479000C9479000C9479006C
:100030000C9479000C9479000C9479000C9479005C
:100040000C945F020C9479000C9479000C94790064
:100050000C9479000C9479000C9479000C9479003C
:100060000C9479000C947900000000080002010053
:100070000003040700000000000000000000000072
:10008000250028002B0000000000240027002A0083
:10009000040404040404040402020202020203032E
:1000A0000303030301020408102040800102040836
:1000B000102001020408102011241FBECFEFD8E049
:1000C000DEBFCDBF21E0A6E0B1E001C01D92A431AA
:1000D000B207E1F711E0A0E0B1E0EAEFFBE002C017
:1000E00005900D92A630B107D9F70E94A9020C9491
:1000F000FB050C94000090E0FC01E859FF4F2491AF
:10010000FC01EC55FF4F3491FC01E057FF4FE491A7
:10011000EE23C9F0222339F0233001F1A8F4213075
:1001200019F1223029F1F0E0EE0FFF1FE458FF4FE4
:10013000A591B4918FB7F894EC91611126C03095D8
:100140003E233C938FBF08952730A9F02830C9F093
:10015000243049F7809180008F7D03C0809180001A
:100160008F7780938000DFCF84B58F7784BDDBCF1E
:1001700084B58F7DFBCF8091B0008F778093B000E6
:10018000D2CF8091B0008F7DF9CF3E2BDACF3FB731
:10019000F89480910B0190910C01A0910D01B09108
:1001A0000E0126B5A89B05C02F3F19F00196A11D91
:1001B000B11D3FBFBA2FA92F982F8827BC01CD01B1
:1001C000620F711D811D911D42E0660F771F881F10
:1001D000991F4A95D1F708958F929F92AF92BF923F
:1001E000CF92DF92EF92FF924B015C010E94C70019
:1001F0006B017C010E94C7006C197D098E099F0963
:10020000683E734081059105A8F321E0821A9108A8
:10021000A108B10888EEC80E83E0D81EE11CF11CCD
:1002200081149104A104B10429F7FF90EF90DF90AD
:10023000CF90BF90AF909F908F900895DF92EF92F4
:10024000FF920F931F93CF93DF93C82FD62ED82FF3
:10025000DF7060E085E00E947B0060E084E00E9447
:100260007B0010E000E0ED2EF12CB701002E02C063
:10027000759567950A94E2F76170802F0E947B0064
:100280000F5F1F4F0430110581F762E370E080E0DB
:1002900090E00E94EC0061E084E00E947B0062E359
:1002A00070E080E090E00E94EC0060E084E00E945A
:1002B0007B0064E670E080E090E00E94EC00DD20CE
:1002C000B1F1C295CF70D0E010E000E0BE01002E89
:1002D00002C0759567950A94E2F76170802F0E94BD
:1002E0007B000F5F1F4F0430110581F762E370E060
:1002F00080E090E00E94EC0061E084E00E947B00DE
:1003000062E370E080E090E00E94EC0060E084E056
:100310000E947B0064E670E080E090E0DF91CF9186
:100320001F910F91FF90EF90DF900C94EC00DF9104
:10033000CF911F910F91FF90EF90DF900895EF9272
:10034000FF921F93CF93DF93182F61E085E00E9407
:100350007B0060E084E00E947B00C12F012E000C36
:10036000DD0B84E0D595C7958A95E1F7CF701F70B6
:10037000F12CE12CD0E0BE010E2C02C075956795E2
:100380000A94E2F761708E2D0E947B008FEFE81ACD
:10039000F80A84E0E816F10471F762E370E080E0A7
:1003A00090E00E94EC0061E084E00E947B0062E348
:1003B00070E080E090E00E94EC0060E084E00E9449
:1003C0007B0064E670E080E090E00E94EC00F12C9D
:1003D000E12CC12FD0E0BE010E2C02C075956795AF
:1003E0000A94E2F761708E2D0E947B008FEFE81A6D
:1003F000F80A84E0E816F10471F762E370E080E047
:1004000090E00E94EC0061E084E00E947B0062E3E7
:1004100070E080E090E00E94EC0060E084E00E94E8
:100420007B0064E670E080E090E00E94EC0060E019
:1004300085E0DF91CF911F91FF90EF900C947B00AE
:10044000EF92FF920F931F93CF93DF93EC017B0109
:100450008A0188819981009729F02A813B8124179C
:10046000350788F4B8016F5F7F4F0E942E05009713
:1004700091F0998388831B830A832C813D81232BF0
:1004800011F4FC0110821D830C83B70188819981CE
:100490000E94F4050CC088819981009711F00E9498
:1004A000A504198218821D821C821B821A82CE0129
:1004B000DF91CF911F910F91FF90EF9008951F92C0
:1004C0000F920FB60F9211242F933F938F939F9308
:1004D000AF93BF938091070190910801A09109010A
:1004E000B0910A013091060123E0230F2D3758F512
:1004F0000196A11DB11D20930601809307019093E1
:100500000801A0930901B0930A0180910B01909119
:100510000C01A0910D01B0910E010196A11DB11D1C
:1005200080930B0190930C01A0930D01B0930E01E9
:10053000BF91AF919F918F913F912F910F900FBEDF
:100540000F901F90189526E8230F0296A11DB11D4C
:10055000D2CFCF93DF93CDB7DEB768970FB6F894BD
:10056000DEBF0FBECDBF789484B5826084BD84B5F4
:10057000816084BD85B5826085BD85B5816085BD9E
:1005800080916E00816080936E0010928100809156
:1005900081008260809381008091810081608093DE
:1005A0008100809180008160809380008091B10003
:1005B00084608093B1008091B00081608093B0002E
:1005C00080917A00846080937A0080917A008260C2
:1005D00080937A0080917A00816080937A00809184
:1005E0007A00806880937A001092C10030E020E0A9
:1005F000F901EC55FF4F4491F901E057FF4F849109
:10060000882399F090E0880F991FFC01EA57FF4F6B
:10061000A591B491FC01E458FF4F859194918FB757
:10062000F894EC91E42BEC938FBF2F5F3F4F263073
:100630003105F1F660E085E00E947B0060E084E037
:100640000E947B0060E085E00E947B0060E084E027
:100650000E947B0060E082E00E941E0161E080E178
:100660000E941E0161E080E20E941E0161E080EDB7
:100670000E941E018EE30E949F018EE30E949F0153
:100680001C8A1B8A1E8A1D8A188E1F8A4AE08E01C8
:100690000F5F1F4FB80189EE93E00E949D03F801A0
:1006A00001900020E9F73197AF01401B510BB801D1
:1006B000CE0143960E9420021A8219821C821B825C
:1006C0001E821D826B897C896115710529F04F8915
:1006D000588DC8010E942002ED80FE8010E000E0ED
:1006E0000E151F05B4F48D819E810817190720F49B
:1006F000E981FA81309751F410920F01EFE0F1E0B7
:1007000080810E949F010F5F1F4FEACFE00FF11F12
:10071000F7CF89819A81009711F00E94A5048B89F7
:100720009C89009711F00E94A50400E010E00115DB
:100730001105E9F30E940000FACFBB274A3031F4DB
:10074000992322F4BDE2909581959F4F0C94A903C3
:10075000BB27FB015527AA27880F991FAA1FA4179B
:1007600010F0A41B83955051B9F7A05DAA3308F08F
:10077000A95DA193009779F7B111B1931192CB01C3
:100780000C94C203DC01FC01672F71917723E1F720
:10079000329704C07C916D9370836291AE17BF074E
:1007A000C8F308952F923F924F925F926F927F927B
:1007B0008F929F92AF92BF92CF92DF92EF92FF9271
:1007C0000F931F93CF93DF93CDB7DEB7CA1BDB0B1D
:1007D0000FB6F894DEBF0FBECDBF09942A883988C2
:1007E00048885F846E847D848C849B84AA84B984C9
:1007F000C884DF80EE80FD800C811B81AA81B981D5
:10080000CE0FD11D0FB6F894DEBF0FBECDBFED01E8
:1008100008950F931F93CF93DF938230910510F4C7
:1008200082E090E0E0911201F091130130E020E0CD
:10083000B0E0A0E0309799F42115310509F44AC0E1
:10084000281B390B24303105D8F58A819B8161152D
:10085000710589F1FB0193838283FE0111C0408100
:1008600051810281138148175907E0F04817590751
:1008700099F4109761F012960C93129713961C93AB
:100880003296CF01DF91CF911F910F910895009380
:10089000120110931301F4CF2115310551F04217C5
:1008A000530738F0A901DB019A01BD01DF01F8010E
:1008B000C1CFEF01F9CF9093130180931201CDCFF7
:1008C000FE01E20FF31F8193919322503109398386
:1008D0002883D7CF2091100130911101232B41F4AF
:1008E00020910201309103013093110120931001F6
:1008F00020910001309101012115310541F42DB7FE
:100900003EB74091040150910501241B350BE09145
:100910001001F0911101E217F307A0F42E1B3F0B19
:100920002817390778F0AC014E5F5F4F2417350761
:1009300048F04E0F5F1F50931101409310018193B7
:1009400091939FCFF0E0E0E09CCFCF93DF930097AF
:10095000E9F0FC01329713821282A0911201B0914A
:100960001301ED0130E020E01097A1F420813181E6
:10097000820F931F20911001309111012817390720
:1009800009F061C0F0931101E0931001DF91CF9164
:100990000895EA01CE17DF07E8F54A815B819E01E1
:1009A00041155105B1F7E901FB83EA83499159915A
:1009B000C40FD51FEC17FD0761F480819181029669
:1009C000840F951FE90199838883828193819B839A
:1009D0008A83F0E0E0E012968D919C911397009746
:1009E000B9F52D913C911197CD010296820F931F7D
:1009F00020911001309111012817390739F63097ED
:100A000051F51092130110921201B0931101A093AD
:100A10001001BCCFD383C28340815181840F951FC5
:100A2000C817D90761F44E5F5F4F88819981480FDD
:100A3000591F518340838A819B819383828321152F
:100A4000310509F0B0CFF0931301E09312019ECF6E
:100A5000FD01DC01C0CF13821282D7CFB0E0A0E04D
:100A6000E4E3F5E00C94D4038C01009751F4CB013E
:100A70000E9409048C01C801CDB7DEB7E0E10C94F7
:100A8000F003FC01E60FF71F9C0122503109E21729
:100A9000F30708F49DC0D901CD91DC911197C617D9
:100AA000D70798F0C530D10530F3CE0104978617EB
:100AB000970708F3C61BD70B2297C193D1936D9369
:100AC0007C93CF010E94A504D6CF5B01AC1ABD0A6E
:100AD0004C018C0E9D1EA0911201B0911301512C5E
:100AE000412CF12CE12C109731F58091100190915F
:100AF00011018815990509F05CC04616570608F0E3
:100B000058C08091000190910101009741F48DB788
:100B10009EB74091040150910501841B950BE81785
:100B2000F90708F055C0F0931101E0931001F901A5
:100B300071836083A0CF8D919C91119712966C90D8
:100B4000129713967C901397A815B90559F56C0167
:100B500042E0C40ED11CCA14DB0420F1AC014A19D6
:100B60005B09DA011296159780F0628273825183D5
:100B70004083D9016D937C93E114F10471F0D701A6
:100B80001396FC93EE93129776CF22968C0F9D1FAF
:100B9000F90191838083F301EFCFF0931301E09388
:100BA000120169CF4816590608F42C017D01D301C2
:100BB0009ACFCB010E9409047C01009749F0AE0155
:100BC000B8010E94EB05C8010E94A504870153CF1C
:100BD00010E000E050CFFB01DC0102C001900D925B
:100BE00041505040D8F70895FB01DC0101900D926F
:100BF0000020E1F70895F894FFCF00001401800071
:107E0000112484B714BE81FFF0D085E080938100F7
:107E100082E08093C00088E18093C10086E0809377
:107E2000C20080E18093C4008EE0C9D0259A86E02C
:107E300020E33CEF91E0309385002093840096BBD3
:107E4000B09BFECF1D9AA8958150A9F7CC24DD24C4
:107E500088248394B5E0AB2EA1E19A2EF3E0BF2EE7
:107E6000A2D0813461F49FD0082FAFD0023811F036
:107E7000013811F484E001C083E08DD089C08234E0
:107E800011F484E103C0853419F485E0A6D080C0E4
:107E9000853579F488D0E82EFF2485D0082F10E0AE
:107EA000102F00270E291F29000F111F8ED06801E7
:107EB0006FC0863521F484E090D080E0DECF843638
:107EC00009F040C070D06FD0082F6DD080E0C81688
:107ED00080E7D80618F4F601B7BEE895C0E0D1E017
:107EE00062D089930C17E1F7F0E0CF16F0E7DF06D8
:107EF00018F0F601B7BEE89568D007B600FCFDCFD4
:107F0000A601A0E0B1E02C9130E011968C91119780
:107F100090E0982F8827822B932B1296FA010C0160
:107F200087BEE89511244E5F5F4FF1E0A038BF0790
:107F300051F7F601A7BEE89507B600FCFDCF97BE46
:107F4000E89526C08437B1F42ED02DD0F82E2BD052
:107F50003CD0F601EF2C8F010F5F1F4F84911BD097
:107F6000EA94F801C1F70894C11CD11CFA94CF0C13
:107F7000D11C0EC0853739F428D08EE10CD085E9AC
:107F80000AD08FE07ACF813511F488E018D01DD067
:107F900080E101D065CF982F8091C00085FFFCCF94
:107FA0009093C60008958091C00087FFFCCF809118
:107FB000C00084FD01C0A8958091C6000895E0E648
:107FC000F0E098E1908380830895EDDF803219F02E
:107FD00088E0F5DFFFCF84E1DECF1F93182FE3DFCA
:107FE0001150E9F7F2DF1F91089580E0E8DFEE27F6
:047FF000FF270994CA
:027FFE00040479
:00000001FF
