:100000000C942D010C9455010C9455010C94550140
:100010000C9455010C9455010C9455010C94550108
:100020000C9455010C9455010C9455010C945501F8
:100030000C9455010C9455010C9455010C945501E8
:100040000C942B060C9455010C94F9050C94D305D3
:100050000C9455010C9455010C9455010C945501C8
:100060000C9455010C94550105A84CCDB2D44EB951
:100070003836A9020C50B9918688083CA6AAAA2A4B
:10008000BE000000803F00407A10F35A00A0724E7C
:1000900018090010A5D4E80000E87648170000E42D
:1000A0000B54020000CA9A3B000000E1F505000075
:1000B00080969800000040420F000000A0860100DA
:1000C0000000102700000000E803000000006400AA
:1000D000000000000A000000000001000000000015
:1000E0002C76D888DC674F0823DFC1DFAE59E1B139
:1000F000B796E5E3E453C63AE651997696E8E6C248
:100100008426EB898C9B62ED407C6FFCEFBC9C9F4E
:1001100040F2BAA56FA5F490055A2AF75C936B6C70
:10012000F9676DC11BFCE0E40D47FEF520E6B50064
:10013000D0ED902E0300943577050080841E0800D2
:1001400000204E0A000000C80C333333330F986E82
:1001500012831141EF8D2114893BE65516CFFEE63F
:10016000DB18D1844B381BF77C1D901DA4BBE42405
:10017000203284725E228100C9F124ECA1E53D2782
:100180000000000800020100000304070000000056
:100190000000000000000000250028002B000000E7
:1001A0000000240027002A000404040404040404BA
:1001B0000202020202020303030303030102040812
:1001C00010204080010204081020010204081020C1
:1001D00000000000F304353F5E836C3FBE147B3F9C
:1001E0006DC47E3F0FB17F3F43EC7F3F11FB7F3FEC
:1001F000C4FE7F3FB1FF7F3FECFF7F3FFBFF7F3FB0
:10020000FFFF7F3F0000803F0000803F0000803FF5
:100210000000803F0000803FF304353F15EFC33EF0
:10022000C2C5473E36BDC83D30FB483DB00AC93C5B
:10023000900E493C880FC93BC60F493BD60FC93ABF
:10024000D90F493ADB0FC939DB0F4939DB0FC93800
:10025000DB0F4938BF0FC937750611241FBECFEF1A
:10026000D8E0DEBFCDBF24E0ACE8B1E001C01D9214
:10027000A234B207E1F711E0A0E0B1E0E4EBF8E26C
:1002800002C005900D92AC38B107D9F711E0CDE26C
:10029000D1E004C02197FE010E946012CC32D10748
:1002A000C9F70E94A2060C9458140C940000AF9257
:1002B000BF92CF92DF92EF92FF920F931F93CF9353
:1002C000DF936C017B018B01040F151FEB015E01B5
:1002D000AE18BF08C017D10759F06991D601ED914A
:1002E000FC910190F081E02DC6010995892B79F7E9
:1002F000C501DF91CF911F910F91FF90EF90DF909B
:10030000CF90BF90AF900895FC01538D448D252F61
:1003100030E0842F90E0821B930B541710F0CF969F
:10032000089501970895FC01918D828D981761F0D1
:10033000A28DAE0FBF2FB11D5D968C91928D9F5FE8
:100340009F73928F90E008958FEF9FEF0895FC01C7
:10035000918D828D981731F0828DE80FF11D858D7A
:1003600090E008958FEF9FEF0895FC01918D228D0D
:10037000892F90E0805C9F4F821B91098F73992792
:10038000089586E993E00E94B50121E0892B09F4E4
:1003900020E0822F089580E090E0892B29F00E94D0
:1003A000C10181110C9400000895FC01A48DA80FD7
:1003B000B92FB11DA35ABF4F2C91848D90E00196A7
:1003C0008F739927848FA689B7892C93A089B189C7
:1003D0008C91837080648C93938D848D981306C068
:1003E0000288F389E02D80818F7D80830895EF92CC
:1003F000FF920F931F93CF93DF93EC0181E0888FDF
:100400009B8D8C8D98131AC0E889F989808185FFAE
:1004100015C09FB7F894EE89FF896083E889F98950
:1004200080818370806480839FBF81E090E0DF9152
:10043000CF911F910F91FF90EF900895F62E0B8DA5
:1004400010E00F5F1F4F0F731127E02E8C8D8E1160
:100450000CC00FB607FCFACFE889F989808185FFC7
:10046000F5CFCE010E94D501F1CFEB8DEC0FFD2F22
:10047000F11DE35AFF4FF0829FB7F8940B8FEA8982
:10048000FB8980818062CFCFCF93DF93EC01888D91
:100490008823B9F0AA89BB89E889F9898C9185FDFF
:1004A00003C0808186FD0DC00FB607FCF7CF8C918D
:1004B00085FFF2CF808185FFEDCFCE010E94D5016F
:1004C000E9CFDF91CF91089590E0FC01E058FE4F15
:1004D0002491FC01E454FE4F3491FC01E855FE4F99
:1004E000E491EE23C9F0222339F0233001F1A8F47E
:1004F000213019F1223029F1F0E0EE0FFF1FEC5608
:10050000FE4FA591B4918FB7F894EC91611126C07C
:1005100030953E233C938FBF08952730A9F02830B3
:10052000C9F0243049F7809180008F7D03C080910D
:1005300080008F7780938000DFCF84B58F7784BD74
:10054000DBCF84B58F7DFBCF8091B0008F77809318
:10055000B000D2CF8091B0008F7DF9CF3E2BDACFA3
:100560003FB7F8948091910190919201A0919301ED
:10057000B091940126B5A89B05C02F3F19F00196B4
:10058000A11DB11D3FBFBA2FA92F982F8827BC01ED
:10059000CD01620F711D811D911D42E0660F771F15
:1005A000881F991F4A95D1F708958F929F92AF9215
:1005B000BF92CF92DF92EF92FF924B015C010E94BB
:1005C000B0026B017C010E94B0026C197D098E099A
:1005D0009F09683E734081059105A8F321E0821AC6
:1005E0009108A108B10888EEC80E83E0D81EE11C6E
:1005F000F11C81149104A104B10429F7FF90EF903C
:10060000DF90CF90BF90AF909F908F900895DF9232
:10061000EF92FF920F931F93CF93DF93C82FD62EA5
:10062000D82FDF7060E085E00E94640260E084E023
:100630000E94640210E000E0ED2EF12CB701002EC4
:1006400002C0759567950A94E2F76170802F0E9449
:1006500064020F5F1F4F0430110581F762E370E001
:1006600080E090E00E94D50261E084E00E94640294
:1006700062E370E080E090E00E94D50260E084E0F8
:100680000E94640264E670E080E090E00E94D5027F
:10069000DD20B1F1C295CF70D0E010E000E0BE01E6
:1006A000002E02C0759567950A94E2F76170802F5D
:1006B0000E9464020F5F1F4F0430110581F762E34F
:1006C00070E080E090E00E94D50261E084E00E944A
:1006D000640262E370E080E090E00E94D50260E096
:1006E00084E00E94640264E670E080E090E0DF91C4
:1006F000CF911F910F91FF90EF90DF900C94D50256
:10070000DF91CF911F910F91FF90EF90DF900895AF
:10071000EF92FF921F93CF93DF93182F61E085E054
:100720000E94640260E084E00E946402C12F012EF6
:10073000000CDD0B84E0D595C7958A95E1F7CF7065
:100740001F70F12CE12CD0E0BE010E2C02C075957B
:1007500067950A94E2F761708E2D0E9464028FEF14
:10076000E81AF80A84E0E816F10471F762E370E031
:1007700080E090E00E94D50261E084E00E94640283
:1007800062E370E080E090E00E94D50260E084E0E7
:100790000E94640264E670E080E090E00E94D5026E
:1007A000F12CE12CC12FD0E0BE010E2C02C07595BA
:1007B00067950A94E2F761708E2D0E9464028FEFB4
:1007C000E81AF80A84E0E816F10471F762E370E0D1
:1007D00080E090E00E94D50261E084E00E94640223
:1007E00062E370E080E090E00E94D50260E084E087
:1007F0000E94640264E670E080E090E00E94D5020E
:1008000060E085E0DF91CF911F91FF90EF900C9415
:100810006402FC0101900020E9F73197AF01481B09
:10082000590BBC0186E993E00C9457018F929F927B
:10083000AF92BF920F931F93CF93DF93CDB7DEB7E5
:10084000A1970FB6F894DEBF0FBECDBF19A24230FC
:1008500008F44AE08E010F5D1F4F842E912CB12CBD
:10086000A12CA50194010E943E12E62FB901CA01F4
:10087000EA30F4F4E05DD801EE938D01232B242BB4
:10088000252B79F790E080E0109719F0CD010E94B8
:100890000904A1960FB6F894DEBF0FBECDBFDF915D
:1008A000CF911F910F91BF90AF909F908F9008951F
:1008B000E95CE1CFCF93DF930E940904EC0188E16A
:1008C00091E00E9409048C0F9D1FDF91CF91089544
:1008D0004F925F926F927F928F929F92AF92BF9250
:1008E000CF92DF92EF92FF920F931F93CF936B0102
:1008F0007C01742EAC019B010E94E911882399F0C0
:100900008BE191E0CF911F910F91FF90EF90DF90DD
:10091000CF90BF90AF909F908F907F906F905F909F
:100920004F900C94090446015701E894B7F82FEF53
:100930003FEF4FE75FE7C501B4010E94E911811164
:100940000DC02FEF3FEF4FE75FE7C501B4010E94F5
:10095000E20E18161CF48FE191E0D4CF2FEF3FEF99
:100960004FE75FE4C701B6010E94961118161CF408
:1009700083E291E0C7CF2FEF3FEF4FE75FECC70176
:10098000B6010E94E20E87FDF3CF20E030E0A9011E
:10099000C701B6010E94E20E10E000E087FF0AC026
:1009A0006DE286E993E00E94F7018C01F7FAF0947A
:1009B000F7F8F094C0E060E070E080E09FE37C1620
:1009C00041F020E030E040E251E40E94AF10CF5F00
:1009D000F6CFA70196010E943E102B013C010E9418
:1009E00028114B015C014AE00E9416047C01E00ED4
:1009F000F11ECC23C1F1C501B4010E94E70E9B0199
:100A0000AC01C301B2010E943D104B015C016EE2DA
:100A100086E993E00E94F701E80EF91EC15018F133
:100A200020E030E040E251E4C501B4010E94480FEB
:100A30002B013C010E9428114B01B12CA12C4AE052
:100A4000C501B4010E941604E80EF91EC501B401E7
:100A50000E94E70E9B01AC01C301B2010E943D1050
:100A60004B015C01DBCFC701CF911F910F91FF902C
:100A7000EF90DF90CF90BF90AF909F908F907F903E
:100A80006F905F904F900895DF92EF92FF920F93D7
:100A90001F93CF93DF937B01D42E8C01D0E0C0E075
:100AA000BE0190E080E00E94E70E21E0D21669F1DD
:100AB000E2E0DE1689F146E00E946804F2E0DF120F
:100AC00004C087E291E00E9409048AE291E00E945A
:100AD0000904F80161917191819191918F0144E034
:100AE0000E94680488E191E00E9409042196EC16B6
:100AF000FD06B1F688E191E0DF91CF911F910F9152
:100B0000FF90EF90DF900C94090420E030E44CE17A
:100B100057E40E94AF10CFCF20E030E44CE157E41F
:100B20000E94480F20E030E040E85CE30E94480F5C
:100B3000C2CFCF93DF93EC0188819981009711F0A8
:100B40000E940213198218821D821C821B821A8243
:100B5000DF91CF9108950F931F93CF93DF93EC0113
:100B600088819981009759F02A813B8126173707A0
:100B700030F081E0DF91CF911F910F9108958B01AB
:100B80006F5F7F4F0E948B13009759F09983888382
:100B90001B830A832C813D81232B59F7FC01108292
:100BA000E8CF80E0E7CF1F920F920FB60F9211248B
:100BB0002F933F934F935F936F937F938F939F9365
:100BC000AF93BF93EF93FF9386E993E00E94D50123
:100BD000FF91EF91BF91AF919F918F917F916F9115
:100BE0005F914F913F912F910F900FBE0F901F90EB
:100BF00018951F920F920FB60F9211242F938F9377
:100C00009F93EF93FF93E091A603F091A703808158
:100C1000E091AC03F091AD0382FD1BC09081809107
:100C2000AF038F5F8F732091B003821741F0E09183
:100C3000AF03F0E0EA56FC4F958F8093AF03FF912E
:100C4000EF919F918F912F910F900FBE0F901F905A
:100C500018958081F4CF1F920F920FB60F92112436
:100C60002F933F938F939F93AF93BF9380918D0169
:100C700090918E01A0918F01B091900130918C01E3
:100C800023E0230F2D3758F50196A11DB11D2093A8
:100C90008C0180938D0190938E01A0938F01B0936E
:100CA00090018091910190919201A0919301B09156
:100CB00094010196A11DB11D809391019093920121
:100CC000A0939301B0939401BF91AF919F918F91A5
:100CD0003F912F910F900FBE0F901F90189526E80F
:100CE000230F0296A11DB11DD2CFE6E9F3E01382D6
:100CF000128288EE93E0A0E0B0E084839583A6831F
:100D0000B7838AE091E09183808385EC90E09587BA
:100D1000848784EC90E09787868780EC90E0918BC5
:100D2000808B81EC90E0938B828B82EC90E0958BB2
:100D3000848B86EC90E0978B868B118E128E138EAF
:100D4000148E0895CF93DF93CDB7DEB7C055D10988
:100D50000FB6F894DEBF0FBECDBF789484B5826025
:100D600084BD84B5816084BD85B5826085BD85B54F
:100D7000816085BD80916E00816080936E001092CD
:100D80008100809181008260809381008091810048
:100D900081608093810080918000816080938000D9
:100DA0008091B10084608093B1008091B000816037
:100DB0008093B00080917A00846080937A00809163
:100DC0007A00826080937A0080917A0081608093BB
:100DD0007A0080917A00806880937A001092C10036
:100DE000E091A603F091A70382E08083E091A20343
:100DF000F091A3031082E091A403F091A5038FEC7E
:100E000080831092AE03E091AA03F091AB0386E0D9
:100E10008083E091A803F091A903808180618083A1
:100E2000E091A803F091A903808188608083E0911C
:100E3000A803F091A903808180688083E091A803D2
:100E4000F091A90380818F7D808368EE73E080E05C
:100E500090E00E94D50230E020E0F901E454FE4F1A
:100E60004491F901E855FE4F8491882399F090E070
:100E7000880F991FFC01E256FE4FA591B491FC0129
:100E8000EC56FE4F859194918FB7F894EC91E42B3A
:100E9000EC938FBF2F5F3F4F26303105F1F660E0B6
:100EA00085E00E94640260E084E00E94640260E0E9
:100EB00085E00E94640260E084E00E94640260E0D9
:100EC00082E00E94070361E080E10E94070361E085
:100ED00080E20E94070361E080ED0E94070389E43D
:100EE0000E9488031BA21AA21DA21CA21FA21EA25E
:100EF0004AE09E012F5F3F4F7901B9018BE790E0F7
:100F00000E94760CF70101900020E9F731978F01DC
:100F10000E191F09B801CE0182960E94AB058111FE
:100F20001EC0CE0182960E949905EEA0FFA010E09F
:100F300000E00E151F05F4F48EA19FA108171907F4
:100F400020F4EAA1FBA1309791F410929501E5E914
:100F5000F1E080810E9488030F5F1F4FEACF1FA33B
:100F60000EA3B7018AA19BA10E945114DECFE00F0E
:100F7000F11FEFCF8CE291E00E945A048AA19BA15D
:100F8000009711F00E94021376E9C72E72E0D72E67
:100F9000E6E9EE2EE1E0FE2E10E000E0B80190E080
:100FA00080E00E94E70E2B013C012CE93BEE45E47A
:100FB00052E40E94480F20E030E040E85CE30E94E9
:100FC000480F0E949B114B015C012CE93BEE45EC64
:100FD00051E4C301B2010E94480F20E030E040E834
:100FE0005CE30E94480F0E949B112B013C0120E012
:100FF00030E048EC52E4C501B4010E94480F20E003
:1010000030E040E05FE30E94480F0E942111A62ECD
:10101000660FBB0820E030E048E452E4C301B201AF
:101020000E94480F20E030E040E05FE30E94480F5C
:101030000E942111C501860F911D67FD9A95BC0183
:10104000072E000C880B990B0E94E90ED6016D93B8
:101050007D938D939D936D01F701119211921192E1
:1010600011927F010F5F1F4F0034110509F096CFD9
:10107000109334040093330480E090E4ACE1B7E4CF
:101080008093350490933604A0933704B0933804CA
:1010900086E992E090933A048093390486E991E0DE
:1010A00090933C0480933B0486E080933D0482E36C
:1010B00091E00E945A0441E060E470E086E992E029
:1010C0000E9444050091330410913404B80190E06B
:1010D00080E00E94E70E20E030E040E85FE30E94FD
:1010E0003D102B013C01180136942794C09039041F
:1010F000D0903A04000F111F000F111F0C0D1D1D81
:10110000F12CE12C2E143F0409F448C0B70190E003
:1011100080E00E94E70EA30192010E94AF102BED28
:101120003FE049EC50E40E94480F0E94AA102FE1D2
:1011300035E84BEE5EE30E94480F9B01AC0161E78E
:101140007DE38AE09FE30E943D104B015C01D601E4
:101150002D913D914D915D916D01FD013497F9A760
:10116000E8A70E94480FA8A5B9A56D937D938D931C
:101170009C931397A5019401F80192918291729129
:1011800062918F010E94480FD8016D937D938D93DA
:101190009C931397BFEFEB1AFB0AB4CF88E391E05F
:1011A0000E945A0441E060E470E086E992E00E9407
:1011B0004405E0913304F0913404F8AFEFABBF0184
:1011C000615071092091390430913A043AAF29AF46
:1011D0008F0116950795F90150E040E090E080E01E
:1011E0004617570708F42FC180913B0490913C04A7
:1011F00061969FAF8EAF6197A1E0B0E0BDA7ACA7AD
:1012000021961CAE1DAE1EAE1FAE219722961FAEBC
:10121000229723961FAE2397B0E82496BFAF24975A
:10122000EFEB2596EFAF259718AA80913D0438A9DA
:10123000381708F0C1C18CA59DA5880F991F2D9660
:101240009FAF8EAF2D97ACA5BDA543E0AA0FBB1FE6
:101250004A95E1F72F96BFAFAEAF2F97ECA5FDA54E
:10126000EE0FFF1FEE0FFF1F2B96FFAFEEAF2B977A
:101270001FA61EA6412C512C320100E0312C60E843
:10128000262E1FE31AAA19AA2CA53DA589A99AA959
:101290002817390709F45EC1A9ADBAADEEA5FFA5BF
:1012A000AE0FBF1FBBA7AAA761962EAD3FAD61973A
:1012B0002E0F3F1F39A728A79CAF8BAF8FA998ADE2
:1012C000ABADBCADA817B90708F0EAC0EAA5FBA50D
:1012D0002B962EAD3FAD2B97E20FF31F2996FFAF54
:1012E000EEAF299780809180A280B38088A599A5D0
:1012F000820F931F27969FAF8EAF2797DC018D91AA
:101300009D910D90BC91A02D8BAB9CABADABBEABBA
:10131000202F332D422D512FC501B4010E94480FBB
:101320006B017C01A30192016BA97CA98DA99EA9E7
:101330000E94480F9B01AC01C701B6010E943D10FD
:101340006B017C012BA93CA94DA95EA9602F732DCF
:10135000822D912F0E94480F6BAB7CAB8DAB9EAB67
:10136000A3019201C501B4010E94480F9B01AC0189
:101370006BA97CA98DA99EA90E943E104B015C011E
:10138000A7019601EAA5FBA5608171818281938105
:101390000E943D102996AEADBFAD29976D937D9308
:1013A0008D939C931397A5019401E8A5F9A56081FD
:1013B0007181828193810E943D102796AEADBFADB1
:1013C00027976D937D938D939C931397A701960117
:1013D000EAA5FBA560817181828193810E943E1004
:1013E000AAA5BBA56D937D938D939C931397A5019F
:1013F0009401E8A5F9A560817181828193810E94A1
:101400003E10A8A5B9A56D937D938D939C931397DA
:10141000EBADFCAD2D962EAD3FAD2D97E20FF31F3A
:10142000FCAFEBAF8AA59BA52F96AEADBFAD2F97B6
:101430008A0F9B1F9BA78AA7E8A5F9A5EA0FFB1FA8
:10144000F9A7E8A73BCF48175907D8F4DC01AA0F42
:10145000BB1FAA0FBB1F29AD3AADA20FB31FC0809F
:10146000D180E280F3808D909D90AD90BC901397D9
:1014700080829182A282B382CD92DD92ED92FC9223
:10148000139798018217930728F0821B930B3695C8
:101490002795F8CF820F931F4F5F5F4F3496A0CEF2
:1014A00022962FAD229723963FAD239724964FADDA
:1014B000249725965FAD2597602F732D822D912F50
:1014C0000E94480F6B017C0121962CAD3DAD4EADC5
:1014D0005FAD2197C301B2010E94480F9B01AC018F
:1014E000C701B6010E943D106B017C0122962FAD11
:1014F000229723963FAD239724964FAD24972596A8
:101500005FAD2597C301B2010E94480F4B015C01FA
:1015100021962CAD3DAD4EAD5FAD2197602F732D63
:10152000822D912F0E94480FA50194010E943E1028
:101530002B013C0129A93AA92F5F3F4F3AAB29ABB8
:101540008EA59FA504969FA78EA70C2D3D2C2E2C13
:101550001F2D9ACEB8A9A4E0BA9FC0011124FC01A6
:10156000EC5EFD4F4591559165917491FC01E053FE
:10157000FE4F85919591A591B49122968FAF2297B8
:1015800023969FAF23972496AFAF24972596BFAF9E
:101590002597E8A9EF5FE8ABDB01CA01B0582196B7
:1015A0008CAF9DAFAEAFBFAF21972D96AEADBFADA7
:1015B0002D97BDA7ACA739CE86E491E00E945A04CE
:1015C00040E060E470E086E992E00E9444058CE52A
:1015D00091E00E945A0440E060E470E086E991E006
:1015E0000E944405C0903304D0903404E090390444
:1015F000F0903A0420903B0430903C0410E000E06E
:10160000C016D10649F1F7016191719181919191D3
:101610007F01D1018D909D90AD90BD901D019B01EA
:10162000AC010E94480F2B013C01A5019401C501AA
:10163000B4010E94480F9B01AC01C301B2010E949A
:101640003E100E94A911F701349760837183828351
:1016500093830F5F1F4FD4CF87E791E00E945A0416
:1016600042E060E270E086E992E00E944405E09189
:101670003304F0913404F9A7E8A7F695E795FBA7A2
:10168000EAA73196FDA7ECA74090390450903A04A0
:101690008201EE24E394F12C312C212C912C812C0D
:1016A000712C612C2CA53DA5E216F306C0F5D801DE
:1016B0006D917D918D919D918D01AC901196BC9015
:1016C00011971296CC9012971396DC90F7013196F1
:1016D000FFA7EEA79501A6010E94E20E87FF1CC09E
:1016E000D80114962D913D914D915C911797B501BC
:1016F000C6010E94961118167CF4292D382D472D0D
:10170000562DB501C6010E94961118162CF417012A
:101710009A2C8B2C7C2C6D2CEEA4FFA4C3CF8101C2
:101720000150104C000F111F000F111F040D151D4B
:10173000F80180809180A280B380C084D184E2844B
:10174000F384A7019601C501B4010E943D102B014D
:101750003C01D80114966D917D918D919C911797C4
:101760009B01AC010E943E109B01AC01C501B4017C
:101770000E943D10A70196010E943E109B01AC0102
:10178000C301B2010E94AF1020E030E040E05FE30F
:101790000E94480F6B017C01B10190E080E00E9443
:1017A000E70E9B01AC01C701B6010E943E102091DB
:1017B00035043091360440913704509138040E942A
:1017C000480F6B017C0168A579A56150710990E013
:1017D00080E00E94E70E9B01AC01C701B6010E94A8
:1017E000AF104B015C01EAA5FBA5E215F30579F406
:1017F00028A539A5B90190E080E00E94E70E9B0181
:10180000AC01C701B6010E94AF104B015C0146E07C
:10181000C501B4010E94680488E191E00E940904B6
:101820001BA21AA21DA21CA21FA21EA28E010F5F44
:101830001F4F2AE04CE0C501B4010E94580C7C0106
:10184000009779F0FC0101900020E9F731978F01B2
:10185000081B190BB801CE0182960E94AB058111BD
:101860001BC0CE0182960E9499050EA11FA10150B6
:10187000110917FD1CC08EA19FA10817190720F49C
:10188000EAA1FBA1309781F410929501E5E9F1E01E
:1018900080810E948803EBCF1FA30EA3B7018AA10A
:1018A0009BA10E945114E1CFE00FF11FF1CFFFCFB8
:1018B000EF920F931F93CF93DF93E80134E047FD3E
:1018C00034E1042E000C550B57FF03C05195419590
:1018D0005109E32E022F242FAE010E949B0CCE0152
:1018E000DF91CF911F910F91EF900895BB274A3060
:1018F00031F4992322F4BDE2909581959F4F0C9489
:10190000820CBB27FB015527AA27880F991FAA1F06
:10191000A41710F0A41B83955051B9F7A05DAA330A
:1019200008F0A95DA193009779F7B111B1931192D5
:10193000CB010C94D20EA9E0B0E0E1EAFCE00C94FB
:101940000C106A01F22EB02E102FFBE3AF2EA01662
:1019500008F41BE31F5F012F27E0AE014F5F5F4FCD
:101960000E94FA0DBC018981982F9970913009F479
:101970003FC09BE2E1FC04C09E2D9170E0FC3AC0A8
:101980005E2D5071E82FE87083FF46C084E091110E
:1019900001C083E0EF2DE81B8F1508F0E0E0D601D1
:1019A0008E2F20E2552351F1992329F0D6019C93E3
:1019B000C60101966C0196012D5F3F4FE2FE24C0E7
:1019C0008EE4D6018C9391E411969C931197129614
:1019D0008C93D9018E2F90E281111BC0E20FF32F5F
:1019E000F11D10828EEF9FEF2996ECE00C942810E9
:1019F0009DE2C6CF90E2C4CF2D9381508111FCCFE0
:101A0000CE0ED11CE0E0D0CF8EE6D6018C9391E6CD
:101A1000DBCF9D938150E0CF482F447082FF3DC0C3
:101A200084E0911101C083E08F1510F4EF2DE81BC5
:101A3000D6018E2F20E2552309F1992329F0D601F2
:101A40009C93C60101966C0196012D5F3F4FE2FE0B
:101A50001BC089E4D6018C938EE411968C93119768
:101A600086E412968C93D9018E2F90E2882309F494
:101A7000B5CF9D938150FACF2D9381508111FCCF2A
:101A8000CE0ED11CE0E0D9CF89E6D6018C938EE64C
:101A900011968C93119786E6E4CF9B0177FF02C0E5
:101AA00030E020E0A1E0B0E0911102C0B0E0A0E0A1
:101AB000F9013196AE0FBF1F8B2C912CBB2009F47E
:101AC00061C05401EFEFAE1ABE0AAA0DBB1DFA1693
:101AD0001B0619F014F04F2D4A1B511188C0E3FC6E
:101AE00059C07601A42FB0E2A1114FC0C40ED11C81
:101AF000992309F45BC040E0D6011196F60190836A
:101B00006D01552309F448C0012F060F9A81582F03
:101B1000507184FF03C0913309F4015010160CF08A
:101B200047C0093008F008E0EEE2FE2E5B01A01A83
:101B3000B10885019194819491082F3F320729F4CF
:101B4000D601FC92F60131966F016217730794F18A
:101B5000021713077CF5DB01A21BB30BAA24A39485
:101B6000B12CAC0EBD1EAA0DBB1D11968C9121503F
:101B70003109D601119628153905F4F0F601808354
:101B80006D01DBCFB12CA12CA0CFF701B1937F0168
:101B9000A150AACF9111B0CFD601942F50E302C02B
:101BA0005D9391509111FCCFC40ED11C40E0ACCF9D
:101BB00001E0BACF80E3DBCF6217730731F49633CD
:101BC00088F4953311F4552369F0F6018083FD0103
:101BD000842F90E2811108C0A40FB11D1C9290E0E7
:101BE00080E002CF81E3F1CF91938150F3CF911147
:101BF00083CF8ACF283008F027E03327DA01990F06
:101C0000311D87FD916000966105710539F43260E0
:101C10002E5F3D9330E32A95E1F708959F3F30F022
:101C200080387105610509F03C5F3C5F3D93913060
:101C300008F08068911DDF93CF931F930F93FF925D
:101C4000EF92192F987F9695E92F96959695E90F23
:101C5000FF27E052FF4F99273327EE24FF24A701E7
:101C6000E70105900894079428F4360FE71EF81E44
:101C7000491F511D660F771F881F991F0694A1F7F2
:101C80000590079428F4E70EF81E491F561FC11D42
:101C9000770F881F991F661F0694A1F70590079478
:101CA00028F4F80E491F561FC71FD11D880F991F12
:101CB000661F771F0694A1F70590079420F4490F3B
:101CC000561FC71FD81F990F661F771F881F0694BE
:101CD000A9F784911095177041F0D695C79557953F
:101CE0004795F794E7941A95C1F7E6E8F0E0689411
:101CF0001590159135916591959105907FE27395B9
:101D0000E118F10A430B560BC90BD009C0F7E10CDF
:101D1000F11E431F561FC91FD01D7EF4703311F4EE
:101D20008A95E6CFE894015030F0080F0AF40027B6
:101D3000021708F4202F2395022F7A3328F079E335
:101D40007D932A95E9F710C07D932A9589F606942C
:101D500097956795379517951794E118F10A430BF6
:101D6000560BC90BD00998F023957E9173957A3361
:101D700008F070E37C932013B8F77E9170617D9337
:101D800030F0839571E37D9370E32A95E1F7112498
:101D9000EF90FF900F911F91CF91DF91992787FDD1
:101DA00090950895DC01FC01672F71917723E1F78D
:101DB000329704C07C916D9370836291AE17BF0718
:101DC000C8F308950E94240F08F481E00895E89470
:101DD00009C097FB3EF490958095709561957F4F73
:101DE0008F4F9F4F9923A9F0F92F96E9BB27939521
:101DF000F695879577956795B795F111F8CFFAF431
:101E0000BB0F11F460FF1BC06F5F7F4F8F4F9F4F61
:101E100016C0882311F096E911C0772321F09EE8BF
:101E2000872F762F05C0662371F096E8862F70E025
:101E300060E02AF09A95660F771F881FDAF7880FFF
:101E40009695879597F90895990F0008550FAA0B55
:101E5000E0E8FEEF16161706E807F907C0F01216BD
:101E60001306E407F50798F0621B730B840B950BC0
:101E700039F40A2661F0232B242B252B21F4089515
:101E80000A2609F4A140A6958FEF811D811D0895B2
:101E90000E945B0F0C94CC0F0E94BE0F38F00E9482
:101EA000C50F20F0952311F00C94B50F0C94BB0FC7
:101EB00011240C9400100E94DD0F70F3959FC1F364
:101EC000950F50E0551F629FF001729FBB27F00DE8
:101ED000B11D639FAA27F00DB11DAA1F649F66273D
:101EE000B00DA11D661F829F2227B00DA11D621F8C
:101EF000739FB00DA11D621F839FA00D611D221F46
:101F0000749F3327A00D611D231F849F600D211D29
:101F1000822F762F6A2F11249F5750409AF0F1F0AC
:101F200088234AF0EE0FFF1FBB1F661F771F881F15
:101F300091505040A9F79E3F510580F00C94B50F89
:101F40000C9400105F3FE4F3983ED4F386957795A8
:101F50006795B795F795E7959F5FC1F7FE2B880FBB
:101F6000911D9695879597F9089597F99F6780E851
:101F700070E060E008959FEF80EC089500240A94DB
:101F80001616170618060906089500240A94121654
:101F90001306140605060895092E0394000C11F487
:101FA000882352F0BB0F40F4BF2B11F460FF04C034
:101FB0006F5F7F4F8F4F9F4F089557FD9058440F8D
:101FC000551F59F05F3F71F04795880F97FB991F98
:101FD00061F09F3F79F08795089512161306140655
:101FE000551FF2CF4695F1DF08C0161617061806E2
:101FF000991FF1CF86957105610508940895E894BD
:10200000BB2766277727CB0197F908952F923F9238
:102010004F925F926F927F928F929F92AF92BF92F8
:10202000CF92DF92EF92FF920F931F93CF93DF93A4
:10203000CDB7DEB7CA1BDB0B0FB6F894DEBF0FBE01
:10204000CDBF09942A88398848885F846E847D844E
:102050008C849B84AA84B984C884DF80EE80FD8050
:102060000C811B81AA81B981CE0FD11D0FB6F894C6
:10207000DEBF0FBECDBFED0108955058BB27AA2784
:102080000E9455100C94CC0F0E94BE0F38F00E9495
:10209000C50F20F039F49F3F19F426F40C94BB0FC0
:1020A0000EF4E095E7FB0C94B50FE92F0E94DD0FCD
:1020B00058F3BA17620773078407950720F079F47D
:1020C000A6F50C94FF0F0EF4E0950B2EBA2FA02D61
:1020D0000B01B90190010C01CA01A0011124FF27D5
:1020E000591B99F0593F50F4503E68F11A16F040D0
:1020F000A22F232F342F4427585FF3CF46953795CF
:102100002795A795F0405395C9F77EF41F16BA0B93
:10211000620B730B840BBAF09150A1F0FF0FBB1F41
:10212000661F771F881FC2F70EC0BA0F621F731F8A
:10213000841F48F4879577956795B795F7959E3FE7
:1021400008F0B0CF9395880F08F09927EE0F979578
:10215000879508950E945911E3950C9482110E946D
:10216000C3100C94CC0F0E94C50F58F00E94BE0FF4
:1021700040F029F45F3F29F00C94B50F51110C94F5
:1021800000100C94BB0F0E94DD0F68F39923B1F38C
:10219000552391F3951B550BBB27AA27621773078D
:1021A000840738F09F5F5F4F220F331F441FAA1F21
:1021B000A9F335D00E2E3AF0E0E832D091505040DD
:1021C000E695001CCAF72BD0FE2F29D0660F771F8B
:1021D000881FBB1F261737074807AB07B0E809F071
:1021E000BB0B802DBF01FF2793585F4F3AF09E3FF6
:1021F000510578F00C94B50F0C9400105F3FE4F398
:10220000983ED4F3869577956795B795F7959F5F38
:10221000C9F7880F911D9695879597F90895E1E084
:10222000660F771F881FBB1F621773078407BA07E3
:1022300020F0621B730B840BBA0BEE1F88F7E0953E
:1022400008950E9428116894B1110C94001008950B
:102250000E94E50F88F09F5798F0B92F9927B75142
:10226000B0F0E1F0660F771F881F991F1AF0BA953A
:10227000C9F714C0B13091F00E94FF0FB1E008958A
:102280000C94FF0F672F782F8827B85F39F0B93F7C
:10229000CCF3869577956795B395D9F73EF49095ED
:1022A0008095709561957F4F8F4F9F4F08950C9447
:1022B000BB0F0E94E50FD8F3E894E0E0BB279F57DF
:1022C000F0F02AED3FE049EC06C0EE0FBB0F661FB1
:1022D000771F881F28F0B23A62077307840728F037
:1022E000B25A620B730B840BE3959A9572F78038A0
:1022F00030F49A95BB0F661F771F881FD2F790485E
:102300000C94F011EF93E0FF07C0A2EA2AED3FE042
:1023100049EC5FEB0E9455100E94CC0F0F90039484
:1023200001FC9058E8E6F0E00C9403120E94240FA0
:1023300008F48FEF08959F930E9459110F9007FCA6
:10234000EE5F0C94821119F416F40C94BB0F0C94EC
:10235000EE110E94E50FB8F39923C9F3B6F39F5726
:10236000550B87FF0E94FC110024A0E640EA900173
:1023700080585695979528F4805C660F771F881FC4
:1023800020F026173707480730F4621B730B840BC5
:10239000202931294A2BA695179407942025312509
:1023A0004A2758F7660F771F881F20F02617370730
:1023B000480730F4620B730B840B200D311D411D57
:1023C000A09581F7B901842F9158880F969587952C
:1023D00008950E94240F880B990B08959F3F31F0B8
:1023E000915020F4879577956795B795880F911D43
:1023F0009695879597F9089591505040660F771FED
:10240000881FD2F708959F938F937F936F93FF93C5
:10241000EF939B01AC010E94480FEF91FF910E9446
:1024200017122F913F914F915F910C94480FDF93BA
:10243000CF931F930F93FF92EF92DF927B018C015A
:10244000689406C0DA2EEF010E945B0FFE01E8944B
:10245000A5912591359145915591A6F3EF010E94E3
:102460005510FE019701A801DA9469F7DF90EF900B
:10247000FF900F911F91CF91DF910895A1E21A2E45
:10248000AA1BBB1BFD010DC0AA1FBB1FEE1FFF1F18
:10249000A217B307E407F50720F0A21BB30BE40B68
:1024A000F50B661F771F881F991F1A9469F76095AF
:1024B0007095809590959B01AC01BD01CF01089569
:1024C000EE0FFF1F0590F491E02D09940F931F93D9
:1024D000CF93DF938230910510F482E090E0E09199
:1024E0004004F091410430E020E0B0E0A0E03097FB
:1024F00099F42115310509F44AC0281B390B243001
:102500003105D8F58A819B816115710589F1FB013F
:1025100093838283FE0111C0408151810281138126
:1025200048175907E0F04817590799F4109761F0D8
:1025300012960C93129713961C933296CF01DF914B
:10254000CF911F910F91089500934004109341047F
:10255000F4CF2115310551F04217530738F0A90186
:10256000DB019A01BD01DF01F801C1CFEF01F9CF15
:102570009093410480934004CDCFFE01E20FF31FFE
:10258000819391932250310939832883D7CF2091A9
:102590003E0430913F04232B41F4209102013091FD
:1025A000030130933F0420933E04209100013091B9
:1025B00001012115310541F42DB73EB740910401C9
:1025C00050910501241B350BE0913E04F0913F042E
:1025D000E217F307A0F42E1B3F0B2817390778F0FA
:1025E000AC014E5F5F4F2417350748F04E0F5F1F59
:1025F00050933F0440933E04819391939FCFF0E02A
:10260000E0E09CCFCF93DF930097E9F0FC01329795
:1026100013821282A0914004B0914104ED0130E098
:1026200020E01097A1F420813181820F931F209127
:102630003E0430913F042817390709F061C0F09338
:102640003F04E0933E04DF91CF910895EA01CE1755
:10265000DF07E8F54A815B819E0141155105B1F71D
:10266000E901FB83EA8349915991C40FD51FEC1707
:10267000FD0761F4808191810296840F951FE90125
:1026800099838883828193819B838A83F0E0E0E051
:1026900012968D919C9113970097B9F52D913C91CD
:1026A0001197CD010296820F931F20913E04309125
:1026B0003F042817390739F6309751F51092410435
:1026C00010924004B0933F04A0933E04BCCFD38348
:1026D000C28340815181840F951FC817D90761F4C7
:1026E0004E5F5F4F88819981480F591F5183408306
:1026F0008A819B81938382832115310509F0B0CFB4
:10270000F0934104E09340049ECFFD01DC01C0CF73
:1027100013821282D7CFB0E0A0E0E1E9F3E10C949C
:1027200008108C01009751F4CB010E9466128C01B5
:10273000C801CDB7DEB7E0E10C942410FC01E60F30
:10274000F71F9C0122503109E217F30708F49DC0DE
:10275000D901CD91DC911197C617D70798F0C530F4
:10276000D10530F3CE0104978617970708F3C61BEF
:10277000D70B2297C193D1936D937C93CF010E9485
:102780000213D6CF5B01AC1ABD0A4C018C0E9D1E04
:10279000A0914004B0914104512C412CF12CE12C2A
:1027A000109731F580913E0490913F04881599056A
:1027B00009F05CC04616570608F058C08091000129
:1027C00090910101009741F48DB79EB740910401AB
:1027D00050910501841B950BE817F90708F055C0C7
:1027E000F0933F04E0933E04F90171836083A0CF2E
:1027F0008D919C91119712966C90129713967C90E4
:102800001397A815B90559F56C0142E0C40ED11C07
:10281000CA14DB0420F1AC014A195B09DA011296F3
:10282000159780F06282738251834083D9016D9342
:102830007C93E114F10471F0D7011396FC93EE93AD
:10284000129776CF22968C0F9D1FF901918380837A
:10285000F301EFCFF0934104E093400469CF4816B1
:10286000590608F42C017D01D3019ACFCB010E94B7
:1028700066127C01009749F0AE01B8010E9448142D
:10288000C8010E940213870153CF10E000E050CF2F
:10289000FB01DC0102C001900D9241505040D8F77D
:1028A0000895FB01DC0101900D920020E1F70895ED
:0428B000F894FFCFCA
:1028B40000004204800000000000F7015701840179
:1028C4004402B5019301A7010D0A006E616E00690F
:1028D4006E66006F766600487A0020005265616477
:1028E4007900446174613A005765696768656420DA
:1028F400646174613A00436F6D707574656420524D
:1029040065616C2076616C7565733A00436F6D7018
:102914007574656420496D6167696E6172792076AA
:10292400616C7565733A00436F6D707574656420EE
:0C2934006D61676E6974756465733A002C
:00000001FF
